{
  "contracts/bentobox/PeggedOracleV1.sol": {
    "PeggedOracleV1": {
      "abi": [
        {
          "inputs": [
            {
              "internalType": "bytes",
              "name": "data",
              "type": "bytes"
            }
          ],
          "name": "get",
          "outputs": [
            {
              "internalType": "bool",
              "name": "",
              "type": "bool"
            },
            {
              "internalType": "uint256",
              "name": "",
              "type": "uint256"
            }
          ],
          "stateMutability": "nonpayable",
          "type": "function"
        },
        {
          "inputs": [
            {
              "internalType": "uint256",
              "name": "rate",
              "type": "uint256"
            }
          ],
          "name": "getDataParameter",
          "outputs": [
            {
              "internalType": "bytes",
              "name": "",
              "type": "bytes"
            }
          ],
          "stateMutability": "pure",
          "type": "function"
        },
        {
          "inputs": [
            {
              "internalType": "bytes",
              "name": "",
              "type": "bytes"
            }
          ],
          "name": "name",
          "outputs": [
            {
              "internalType": "string",
              "name": "",
              "type": "string"
            }
          ],
          "stateMutability": "view",
          "type": "function"
        },
        {
          "inputs": [
            {
              "internalType": "bytes",
              "name": "data",
              "type": "bytes"
            }
          ],
          "name": "peek",
          "outputs": [
            {
              "internalType": "bool",
              "name": "",
              "type": "bool"
            },
            {
              "internalType": "uint256",
              "name": "",
              "type": "uint256"
            }
          ],
          "stateMutability": "view",
          "type": "function"
        },
        {
          "inputs": [
            {
              "internalType": "bytes",
              "name": "data",
              "type": "bytes"
            }
          ],
          "name": "peekSpot",
          "outputs": [
            {
              "internalType": "uint256",
              "name": "rate",
              "type": "uint256"
            }
          ],
          "stateMutability": "view",
          "type": "function"
        },
        {
          "inputs": [
            {
              "internalType": "bytes",
              "name": "",
              "type": "bytes"
            }
          ],
          "name": "symbol",
          "outputs": [
            {
              "internalType": "string",
              "name": "",
              "type": "string"
            }
          ],
          "stateMutability": "view",
          "type": "function"
        }
      ],
      "devdoc": {
        "author": "BoringCrypto",
        "kind": "dev",
        "methods": {
          "get(bytes)": {
            "params": {
              "data": "Usually abi encoded, implementation specific data that contains information and arguments to & about the oracle. For example: (string memory collateralSymbol, string memory assetSymbol, uint256 division) = abi.decode(data, (string, string, uint256));"
            },
            "returns": {
              "_0": "success if no valid (recent) rate is available, return false else true.",
              "_1": "rate The rate of the requested asset / pair / pool."
            }
          },
          "getDataParameter(uint256)": {
            "params": {
              "rate": "(uint256) The fixed exchange rate"
            },
            "returns": {
              "_0": "(bytes)"
            }
          },
          "name(bytes)": {
            "params": {
              "data": "Usually abi encoded, implementation specific data that contains information and arguments to & about the oracle. For example: (string memory collateralSymbol, string memory assetSymbol, uint256 division) = abi.decode(data, (string, string, uint256));"
            },
            "returns": {
              "_0": "(string) A human readable name about this oracle."
            }
          },
          "peek(bytes)": {
            "params": {
              "data": "Usually abi encoded, implementation specific data that contains information and arguments to & about the oracle. For example: (string memory collateralSymbol, string memory assetSymbol, uint256 division) = abi.decode(data, (string, string, uint256));"
            },
            "returns": {
              "_0": "success if no valid (recent) rate is available, return false else true.",
              "_1": "rate The rate of the requested asset / pair / pool."
            }
          },
          "peekSpot(bytes)": {
            "params": {
              "data": "Usually abi encoded, implementation specific data that contains information and arguments to & about the oracle. For example: (string memory collateralSymbol, string memory assetSymbol, uint256 division) = abi.decode(data, (string, string, uint256));"
            },
            "returns": {
              "rate": "The rate of the requested asset / pair / pool."
            }
          },
          "symbol(bytes)": {
            "params": {
              "data": "Usually abi encoded, implementation specific data that contains information and arguments to & about the oracle. For example: (string memory collateralSymbol, string memory assetSymbol, uint256 division) = abi.decode(data, (string, string, uint256));"
            },
            "returns": {
              "_0": "(string) A human readable symbol name about this oracle."
            }
          }
        },
        "title": "PeggedOracle",
        "version": 1
      },
      "evm": {
        "bytecode": {
          "linkReferences": {},
          "object": "608060405234801561001057600080fd5b506103ac806100206000396000f3fe608060405234801561001057600080fd5b50600436106100625760003560e01c8063c699c4d614610067578063d39bbef01461014a578063d568866c146101ca578063d6d7d52514610238578063ea887d08146102c1578063eeb8a8d314610238575b600080fd5b6100d56004803603602081101561007d57600080fd5b810190602081018135600160201b81111561009757600080fd5b8201836020820111156100a957600080fd5b803590602001918460018302840111600160201b831117156100ca57600080fd5b5090925090506102de565b6040805160208082528351818301528351919283929083019185019080838360005b8381101561010f5781810151838201526020016100f7565b50505050905090810190601f16801561013c5780820380516001836020036101000a031916815260200191505b509250505060405180910390f35b6101b86004803603602081101561016057600080fd5b810190602081018135600160201b81111561017a57600080fd5b82018360208201111561018c57600080fd5b803590602001918460018302840111600160201b831117156101ad57600080fd5b5090925090506102fd565b60408051918252519081900360200190f35b6100d5600480360360208110156101e057600080fd5b810190602081018135600160201b8111156101fa57600080fd5b82018360208201111561020c57600080fd5b803590602001918460018302840111600160201b8311171561022d57600080fd5b509092509050610311565b6102a66004803603602081101561024e57600080fd5b810190602081018135600160201b81111561026857600080fd5b82018360208201111561027a57600080fd5b803590602001918460018302840111600160201b8311171561029b57600080fd5b509092509050610333565b60408051921515835260208301919091528051918290030190f35b6100d5600480360360208110156102d757600080fd5b5035610358565b505060408051808201909152600381526250454760e81b602082015290565b60006103098383610333565b949350505050565b5050604080518082019091526006815265141959d9d95960d21b602082015290565b60008060008484602081101561034857600080fd5b5035801515969095509350505050565b6040805160208082019390935281518082039093018352810190529056fea264697066735822122080e2463dd9b6ea742189ef6dc1286fa5185bba9dec13d77ec6eae5e023b0bf3164736f6c634300060c0033",
          "opcodes": "PUSH1 0x80 PUSH1 0x40 MSTORE CALLVALUE DUP1 ISZERO PUSH2 0x10 JUMPI PUSH1 0x0 DUP1 REVERT JUMPDEST POP PUSH2 0x3AC DUP1 PUSH2 0x20 PUSH1 0x0 CODECOPY PUSH1 0x0 RETURN INVALID PUSH1 0x80 PUSH1 0x40 MSTORE CALLVALUE DUP1 ISZERO PUSH2 0x10 JUMPI PUSH1 0x0 DUP1 REVERT JUMPDEST POP PUSH1 0x4 CALLDATASIZE LT PUSH2 0x62 JUMPI PUSH1 0x0 CALLDATALOAD PUSH1 0xE0 SHR DUP1 PUSH4 0xC699C4D6 EQ PUSH2 0x67 JUMPI DUP1 PUSH4 0xD39BBEF0 EQ PUSH2 0x14A JUMPI DUP1 PUSH4 0xD568866C EQ PUSH2 0x1CA JUMPI DUP1 PUSH4 0xD6D7D525 EQ PUSH2 0x238 JUMPI DUP1 PUSH4 0xEA887D08 EQ PUSH2 0x2C1 JUMPI DUP1 PUSH4 0xEEB8A8D3 EQ PUSH2 0x238 JUMPI JUMPDEST PUSH1 0x0 DUP1 REVERT JUMPDEST PUSH2 0xD5 PUSH1 0x4 DUP1 CALLDATASIZE SUB PUSH1 0x20 DUP2 LT ISZERO PUSH2 0x7D JUMPI PUSH1 0x0 DUP1 REVERT JUMPDEST DUP2 ADD SWAP1 PUSH1 0x20 DUP2 ADD DUP2 CALLDATALOAD PUSH1 0x1 PUSH1 0x20 SHL DUP2 GT ISZERO PUSH2 0x97 JUMPI PUSH1 0x0 DUP1 REVERT JUMPDEST DUP3 ADD DUP4 PUSH1 0x20 DUP3 ADD GT ISZERO PUSH2 0xA9 JUMPI PUSH1 0x0 DUP1 REVERT JUMPDEST DUP1 CALLDATALOAD SWAP1 PUSH1 0x20 ADD SWAP2 DUP5 PUSH1 0x1 DUP4 MUL DUP5 ADD GT PUSH1 0x1 PUSH1 0x20 SHL DUP4 GT OR ISZERO PUSH2 0xCA JUMPI PUSH1 0x0 DUP1 REVERT JUMPDEST POP SWAP1 SWAP3 POP SWAP1 POP PUSH2 0x2DE JUMP JUMPDEST PUSH1 0x40 DUP1 MLOAD PUSH1 0x20 DUP1 DUP3 MSTORE DUP4 MLOAD DUP2 DUP4 ADD MSTORE DUP4 MLOAD SWAP2 SWAP3 DUP4 SWAP3 SWAP1 DUP4 ADD SWAP2 DUP6 ADD SWAP1 DUP1 DUP4 DUP4 PUSH1 0x0 JUMPDEST DUP4 DUP2 LT ISZERO PUSH2 0x10F JUMPI DUP2 DUP2 ADD MLOAD DUP4 DUP3 ADD MSTORE PUSH1 0x20 ADD PUSH2 0xF7 JUMP JUMPDEST POP POP POP POP SWAP1 POP SWAP1 DUP2 ADD SWAP1 PUSH1 0x1F AND DUP1 ISZERO PUSH2 0x13C JUMPI DUP1 DUP3 SUB DUP1 MLOAD PUSH1 0x1 DUP4 PUSH1 0x20 SUB PUSH2 0x100 EXP SUB NOT AND DUP2 MSTORE PUSH1 0x20 ADD SWAP2 POP JUMPDEST POP SWAP3 POP POP POP PUSH1 0x40 MLOAD DUP1 SWAP2 SUB SWAP1 RETURN JUMPDEST PUSH2 0x1B8 PUSH1 0x4 DUP1 CALLDATASIZE SUB PUSH1 0x20 DUP2 LT ISZERO PUSH2 0x160 JUMPI PUSH1 0x0 DUP1 REVERT JUMPDEST DUP2 ADD SWAP1 PUSH1 0x20 DUP2 ADD DUP2 CALLDATALOAD PUSH1 0x1 PUSH1 0x20 SHL DUP2 GT ISZERO PUSH2 0x17A JUMPI PUSH1 0x0 DUP1 REVERT JUMPDEST DUP3 ADD DUP4 PUSH1 0x20 DUP3 ADD GT ISZERO PUSH2 0x18C JUMPI PUSH1 0x0 DUP1 REVERT JUMPDEST DUP1 CALLDATALOAD SWAP1 PUSH1 0x20 ADD SWAP2 DUP5 PUSH1 0x1 DUP4 MUL DUP5 ADD GT PUSH1 0x1 PUSH1 0x20 SHL DUP4 GT OR ISZERO PUSH2 0x1AD JUMPI PUSH1 0x0 DUP1 REVERT JUMPDEST POP SWAP1 SWAP3 POP SWAP1 POP PUSH2 0x2FD JUMP JUMPDEST PUSH1 0x40 DUP1 MLOAD SWAP2 DUP3 MSTORE MLOAD SWAP1 DUP2 SWAP1 SUB PUSH1 0x20 ADD SWAP1 RETURN JUMPDEST PUSH2 0xD5 PUSH1 0x4 DUP1 CALLDATASIZE SUB PUSH1 0x20 DUP2 LT ISZERO PUSH2 0x1E0 JUMPI PUSH1 0x0 DUP1 REVERT JUMPDEST DUP2 ADD SWAP1 PUSH1 0x20 DUP2 ADD DUP2 CALLDATALOAD PUSH1 0x1 PUSH1 0x20 SHL DUP2 GT ISZERO PUSH2 0x1FA JUMPI PUSH1 0x0 DUP1 REVERT JUMPDEST DUP3 ADD DUP4 PUSH1 0x20 DUP3 ADD GT ISZERO PUSH2 0x20C JUMPI PUSH1 0x0 DUP1 REVERT JUMPDEST DUP1 CALLDATALOAD SWAP1 PUSH1 0x20 ADD SWAP2 DUP5 PUSH1 0x1 DUP4 MUL DUP5 ADD GT PUSH1 0x1 PUSH1 0x20 SHL DUP4 GT OR ISZERO PUSH2 0x22D JUMPI PUSH1 0x0 DUP1 REVERT JUMPDEST POP SWAP1 SWAP3 POP SWAP1 POP PUSH2 0x311 JUMP JUMPDEST PUSH2 0x2A6 PUSH1 0x4 DUP1 CALLDATASIZE SUB PUSH1 0x20 DUP2 LT ISZERO PUSH2 0x24E JUMPI PUSH1 0x0 DUP1 REVERT JUMPDEST DUP2 ADD SWAP1 PUSH1 0x20 DUP2 ADD DUP2 CALLDATALOAD PUSH1 0x1 PUSH1 0x20 SHL DUP2 GT ISZERO PUSH2 0x268 JUMPI PUSH1 0x0 DUP1 REVERT JUMPDEST DUP3 ADD DUP4 PUSH1 0x20 DUP3 ADD GT ISZERO PUSH2 0x27A JUMPI PUSH1 0x0 DUP1 REVERT JUMPDEST DUP1 CALLDATALOAD SWAP1 PUSH1 0x20 ADD SWAP2 DUP5 PUSH1 0x1 DUP4 MUL DUP5 ADD GT PUSH1 0x1 PUSH1 0x20 SHL DUP4 GT OR ISZERO PUSH2 0x29B JUMPI PUSH1 0x0 DUP1 REVERT JUMPDEST POP SWAP1 SWAP3 POP SWAP1 POP PUSH2 0x333 JUMP JUMPDEST PUSH1 0x40 DUP1 MLOAD SWAP3 ISZERO ISZERO DUP4 MSTORE PUSH1 0x20 DUP4 ADD SWAP2 SWAP1 SWAP2 MSTORE DUP1 MLOAD SWAP2 DUP3 SWAP1 SUB ADD SWAP1 RETURN JUMPDEST PUSH2 0xD5 PUSH1 0x4 DUP1 CALLDATASIZE SUB PUSH1 0x20 DUP2 LT ISZERO PUSH2 0x2D7 JUMPI PUSH1 0x0 DUP1 REVERT JUMPDEST POP CALLDATALOAD PUSH2 0x358 JUMP JUMPDEST POP POP PUSH1 0x40 DUP1 MLOAD DUP1 DUP3 ADD SWAP1 SWAP2 MSTORE PUSH1 0x3 DUP2 MSTORE PUSH3 0x504547 PUSH1 0xE8 SHL PUSH1 0x20 DUP3 ADD MSTORE SWAP1 JUMP JUMPDEST PUSH1 0x0 PUSH2 0x309 DUP4 DUP4 PUSH2 0x333 JUMP JUMPDEST SWAP5 SWAP4 POP POP POP POP JUMP JUMPDEST POP POP PUSH1 0x40 DUP1 MLOAD DUP1 DUP3 ADD SWAP1 SWAP2 MSTORE PUSH1 0x6 DUP2 MSTORE PUSH6 0x141959D9D959 PUSH1 0xD2 SHL PUSH1 0x20 DUP3 ADD MSTORE SWAP1 JUMP JUMPDEST PUSH1 0x0 DUP1 PUSH1 0x0 DUP5 DUP5 PUSH1 0x20 DUP2 LT ISZERO PUSH2 0x348 JUMPI PUSH1 0x0 DUP1 REVERT JUMPDEST POP CALLDATALOAD DUP1 ISZERO ISZERO SWAP7 SWAP1 SWAP6 POP SWAP4 POP POP POP POP JUMP JUMPDEST PUSH1 0x40 DUP1 MLOAD PUSH1 0x20 DUP1 DUP3 ADD SWAP4 SWAP1 SWAP4 MSTORE DUP2 MLOAD DUP1 DUP3 SUB SWAP1 SWAP4 ADD DUP4 MSTORE DUP2 ADD SWAP1 MSTORE SWAP1 JUMP INVALID LOG2 PUSH5 0x6970667358 0x22 SLT KECCAK256 DUP1 0xE2 CHAINID RETURNDATASIZE 0xD9 0xB6 0xEA PUSH21 0x2189EF6DC1286FA5185BBA9DEC13D77EC6EAE5E023 0xB0 0xBF BALANCE PUSH5 0x736F6C6343 STOP MOD 0xC STOP CALLER "
        },
        "gasEstimates": {
          "creation": {
            "codeDepositCost": "188000",
            "executionCost": "232",
            "totalCost": "188232"
          },
          "external": {
            "get(bytes)": "565",
            "getDataParameter(uint256)": "infinite",
            "name(bytes)": "infinite",
            "peek(bytes)": "609",
            "peekSpot(bytes)": "538",
            "symbol(bytes)": "infinite"
          }
        },
        "methodIdentifiers": {
          "get(bytes)": "d6d7d525",
          "getDataParameter(uint256)": "ea887d08",
          "name(bytes)": "d568866c",
          "peek(bytes)": "eeb8a8d3",
          "peekSpot(bytes)": "d39bbef0",
          "symbol(bytes)": "c699c4d6"
        }
      },
      "storageLayout": {
        "storage": [],
        "types": null
      },
      "userdoc": {
        "kind": "user",
        "methods": {
          "get(bytes)": {
            "notice": "Get the latest exchange rate."
          },
          "getDataParameter(uint256)": {
            "notice": "@dev"
          },
          "name(bytes)": {
            "notice": "Returns a human readable name about this oracle."
          },
          "peek(bytes)": {
            "notice": "Check the last exchange rate without any state changes."
          },
          "peekSpot(bytes)": {
            "notice": "Check the current spot exchange rate without any state changes. For oracles like TWAP this will be different from peek()."
          },
          "symbol(bytes)": {
            "notice": "Returns a human readable (short) name about this oracle."
          }
        },
        "notice": "Oracle used for pegged prices that don't change",
        "version": 1
      }
    }
  }
}